AttributeDict({'blockHash': '0x8d38e6eb56d077a05b5d611ee85d5cc0fa91b7aecde66b8d5f900d8faf33829c', 'blockNumber': 4161334, 'condition': None, 'creates': None, 'from': '0xd046b3c521c0f5513c8a47eb3c2011684ea80b27', 'gas': 250000, 'gasPrice': 50000000000, 'hash': '0x63aee4a55bf8ae93165df6860e01475fb0c50675180bd44ea8dfffa8423bf7ae', 'input': '0x338b5dea000000000000000000000000e41d2489571d322189246dafa5ebde1f4699f49800000000000000000000000000000000000000000000043c33c1937564800000', 'networkId': 1, 'nonce': 21, 'publicKey': '0x37c2dc5f525d101de1109f2687e96dc91066c5b0b341d848fcd3e3560da1c66123b75265378a6bed4223fb085bb585564f855be55b2e22e7aab8320277c4dae4', 'r': '0x4f5c4fd6b6d2c3cd3b6f164370696c487b74f575f7e6debbf7ad2c494f8f7f02', 'raw': '0xf8aa15850ba43b74008303d090948d12a197cb00d4747a1fe03395095ce2a5cc681980b844338b5dea000000000000000000000000e41d2489571d322189246dafa5ebde1f4699f49800000000000000000000000000000000000000000000043c33c193756480000026a04f5c4fd6b6d2c3cd3b6f164370696c487b74f575f7e6debbf7ad2c494f8f7f02a01c2b8b4fed20cee2822d56b6a758493dbcc6aa3525a71cd6a69727876a452aa9', 's': '0x1c2b8b4fed20cee2822d56b6a758493dbcc6aa3525a71cd6a69727876a452aa9', 'standardV': '0x1', 'to': '0x8d12a197cb00d4747a1fe03395095ce2a5cc6819', 'transactionIndex': 10, 'v': '0x26', 'value': 0})
AttributeDict({'blockHash': '0x8d38e6eb56d077a05b5d611ee85d5cc0fa91b7aecde66b8d5f900d8faf33829c', 'blockNumber': 4161334, 'condition': None, 'creates': None, 'from': '0xd9321dad31051c5545b78038ced2c7ee2a60bbc7', 'gas': 250000, 'gasPrice': 20000000000, 'hash': '0x0b9bba3b0eaa0ed618c35266600a6b5fa23fc5dd2555e1fbdb100bae407e4249', 'input': '0x338b5dea000000000000000000000000e41d2489571d322189246dafa5ebde1f4699f49800000000000000000000000000000000000000000000043c33c1937564800000', 'networkId': None, 'nonce': 2, 'publicKey': '0xfe6476b0c5dccfcfe343c569ec2b08f61f0b34f9bc07fb1fd85b3df79faa5587ade0e101fc93a10c3b6a89903f7ff0db6a3a2670f924ed74dd259dddfd5b3b62', 'r': '0xf9e68482ed8aa05d1f49b1408df404cf2eae67795292d7f646ae4232d1902568', 'raw': '0xf8aa028504a817c8008303d090948d12a197cb00d4747a1fe03395095ce2a5cc681980b844338b5dea000000000000000000000000e41d2489571d322189246dafa5ebde1f4699f49800000000000000000000000000000000000000000000043c33c19375648000001ba0f9e68482ed8aa05d1f49b1408df404cf2eae67795292d7f646ae4232d1902568a02bdc1cc8f1c572db829e371613a1189b327c92e2536eb374b8f4ec26bb9d658a', 's': '0x2bdc1cc8f1c572db829e371613a1189b327c92e2536eb374b8f4ec26bb9d658a', 'standardV': '0x0', 'to': '0x8d12a197cb00d4747a1fe03395095ce2a5cc6819', 'transactionIndex': 146, 'v': '0x1b', 'value': 0})
